:100000000C9453000C947B000C947B000C947B00AC
:100010000C947B000C947B000C947B000C947B0074
:100020000C947B000C947B000C947B000C947B0064
:100030000C947B000C947B000C947B000C947B0054
:100040000C94A6020C947B000C9416030C94F00202
:100050000C947B000C947B000C947B000C947B0034
:100060000C947B000C947B0000000000250028000D
:100070002B0000000000240027002A0004040404D0
:100080000404040402020202020203030303030342
:10009000010204081020408001020408102001021F
:1000A000040810201A0411241FBECFEFD8E0DEBFD1
:1000B000CDBF11E0A0E0B1E0E4E6FDE002C00590B4
:1000C0000D92A432B107D9F721E0A4E2B1E001C05A
:1000D0001D92AA3CB207E1F710E0C3E5D0E004C0EE
:1000E0002197FE010E946904C235D107C9F70E9419
:1000F00048030C94B0060C940000CF92DF92EF926C
:10010000FF920F931F93CF93DF936C017A018B01C2
:10011000C0E0D0E0CE15DF0589F0D8016D918D01EA
:10012000D601ED91FC910190F081E02DC601099579
:10013000892B11F47E0102C02196ECCFC701DF911B
:10014000CF911F910F91FF90EF90DF90CF90089586
:10015000FC01918D828D981761F0828DDF01A80FCF
:10016000B11D5D968C91928D9F5F9F73928F90E0F1
:1001700008958FEF9FEF0895FC01918D828D981760
:1001800031F0828DE80FF11D858D90E008958FEF9D
:100190009FEF0895FC01918D228D892F90E0805C66
:1001A0009F4F821B91098F73992708958DE291E0EB
:1001B0000E94CA0021E0892B09F420E0822F0895D3
:1001C000FC01848DDF01A80FB11DA35ABF4F2C91F4
:1001D000848D90E001968F739927848FA689B789C3
:1001E0002C93A089B1898C9180648C93938D848D9C
:1001F000981306C00288F389E02D80818F7D80836B
:100200000895EF92FF920F931F93CF93DF93EC012A
:1002100081E0888F9B8D8C8D981305C0E889F989C2
:10022000808185FD24C0F62E0B8D10E00F5F1F4FDF
:100230000F731127E02E8C8DE8120CC00FB607FC4F
:10024000FACFE889F989808185FFF5CFCE010E9438
:10025000E000F1CF8B8DFE01E80FF11DE35AFF4F57
:10026000F0820B8FEA89FB898081806207C0EE896A
:10027000FF896083E889F98980818064808381E0D7
:1002800090E0DF91CF911F910F91FF90EF90089533
:10029000CF93DF93EC01888D8823C9F0EA89FB892D
:1002A000808185FD05C0A889B9898C9186FD0FC024
:1002B0000FB607FCF5CF808185FFF2CFA889B989F9
:1002C0008C9185FFEDCFCE010E94E000E7CFDF915A
:1002D000CF91089580E090E0892B29F00E94D6000C
:1002E00081110C9400000895009769F0FC010190C1
:1002F0000020E9F73197AF01481B590BBC018DE293
:1003000091E00C947D0080E090E008958F929F92A0
:10031000AF92BF920F931F93CF93DF93CDB7DEB70A
:10032000A1970FB6F894DEBF0FBECDBF19A2423021
:1003300008F44AE08E010F5D1F4F842E912CA12CF2
:10034000B12CA50194010E944704E62FB901CA010E
:1003500001501109EA3014F4E05D01C0E95CD801F4
:10036000EC93232B242B252B61F7C8010E947401E9
:10037000A1960FB6F894DEBF0FBECDBFDF91CF912F
:100380001F910F91BF90AF909F908F9008954F92C3
:100390005F926F927F928F929F92AF92BF92CF9215
:1003A000DF92EF92FF926B017C01B42E9B01AC01B6
:1003B0000E94A606882319F080E191E027C026015B
:1003C0003701E89477F82FEF3FEF4FE75FE7C3017E
:1003D000B2010E94A60681110DC02FEF3FEF4FE73B
:1003E0005FE7C301B2010E94DC0418161CF484E12B
:1003F00091E00CC02FEF3FEF4FE75FE4C701B6017C
:100400000E943406181684F488E191E0FF90EF9082
:10041000DF90CF90BF90AF909F908F907F906F9024
:100420005F904F900C9474012FEF3FEF4FE75FEC1C
:10043000C701B6010E94DC0487FDE6CF20E030E072
:10044000A901C701B6010E94DC0487FF11C0E09139
:100450002D01F0912E010190F081E02D6DE28DE2F1
:1004600091E009954C01F7FAF094F7F8F09402C086
:10047000812C912CA12C60E070E080E09FE3AB1414
:1004800041F020E030E040E251E40E94E104A39416
:10049000F6CF9B01AC01C701B6010E9470042B018D
:1004A0003C010E9453056B017C010E9482059B0167
:1004B000AC01C301B2010E946F042B013C014AE070
:1004C000C701B6010E9486017C01E80CF91CBB2023
:1004D00031F08CE191E00E947401E80EF91EDB2CF2
:1004E000DD2021F120E030E040E251E4C301B2011F
:1004F0000E9439062B013C010E9453054B01A12C9F
:10050000B12C4AE0C501B4010E948601E80EF91E33
:10051000C501B4010E9482059B01AC01C301B20177
:100520000E946F042B013C01DA94DACFC701FF90DF
:10053000EF90DF90CF90BF90AF909F908F907F9083
:100540006F905F904F9008950E94AB061F920F929C
:100550000FB60F9211242F933F938F939F93AF93D6
:10056000BF938091290190912A01A0912B01B09114
:100570002C013091280123E0230F2D3720F4019620
:10058000A11DB11D05C026E8230F0296A11DB11DB6
:10059000209328018093290190932A01A0932B0195
:1005A000B0932C018091240190912501A091260106
:1005B000B09127010196A11DB11D80932401909354
:1005C0002501A0932601B0932701BF91AF919F9180
:1005D0008F913F912F910F900FBE0F901F90189504
:1005E0001F920F920FB60F9211242F933F934F93A8
:1005F0005F936F937F938F939F93AF93BF93EF938B
:10060000FF938DE291E00E94E000FF91EF91BF9196
:10061000AF919F918F917F916F915F914F913F919A
:100620002F910F900FBE0F901F9018951F920F9251
:100630000FB60F9211242F938F939F93EF93FF93F5
:10064000E0913D01F0913E018081E0914301F09104
:10065000440182FD12C09081809146018F5F8F73AB
:1006600020914701821751F0E0914601F0E0E35DEF
:10067000FE4F958F8093460101C08081FF91EF91DD
:100680009F918F912F910F900FBE0F901F901895F3
:10069000789484B5826084BD84B5816084BD85B55D
:1006A000826085BD85B5816085BD80916E00816069
:1006B00080936E001092810080918100826080930F
:1006C0008100809181008160809381008091800011
:1006D0008160809380008091B10084608093B1003C
:1006E0008091B00081608093B00080917A00846036
:1006F00080937A0080917A00826080937A00809162
:100700007A00816080937A0080917A00806880937B
:100710007A001092C100EDE9F0E02491E9E8F0E000
:100720008491882399F090E0880F991FFC01EE587E
:10073000FF4FA591B491FC01E859FF4F8591949129
:100740008FB7F894EC91E22BEC938FBFE0913D01D1
:10075000F0913E0182E08083E0913901F0913A010D
:100760001082E0913B01F0913C018FEC808310926C
:100770004501E0914101F091420186E08083E091E2
:100780003F01F0914001808180618083E0913F01D1
:10079000F0914001808188608083E0913F01F09179
:1007A0004001808180688083E0913F01F0914001A9
:1007B00080818F7D8083C0E4C0937C0080917A002B
:1007C000806480937A0080917A0086FDFCCF6091EE
:1007D00078008091790070E0782B072E000C880B50
:1007E000990B0E9484056B017C0142E00E94C701C5
:1007F0008EE191E00E94740120E030E44CE156E487
:10080000C701B6010E9470049B01AC01C701B6018B
:100810000E94E10420E030E040EA50E40E94390602
:1008200042E00E94C70180E291E00E9474010E94B0
:100830006A01C2CFEDE2F1E01382128288EE93E00A
:10084000A0E0B0E084839583A683B78384E091E041
:100850009183808385EC90E09587848784EC90E099
:100860009787868780EC90E0918B808B81EC90E07D
:10087000938B828B82EC90E0958B848B86EC90E05E
:10088000978B868B118E128E138E148E0895A1E293
:100890001A2EAA1BBB1BFD010DC0AA1FBB1FEE1FFA
:1008A000FF1FA217B307E407F50720F0A21BB30B45
:1008B000E40BF50B661F771F881F991F1A9469F7C1
:1008C00060957095809590959B01AC01BD01CF011D
:1008D0000895EE0FFF1F0590F491E02D09945058F4
:1008E000BB27AA270E9487040C94FA050E94EC05F6
:1008F00038F00E94F30520F039F49F3F19F426F4F4
:100900000C94E9050EF4E095E7FB0C94E305E92F60
:100910000E940B0658F3BA176207730784079507FE
:1009200020F079F4A6F50C942D060EF4E0950B2E2C
:10093000BA2FA02D0B01B90190010C01CA01A00131
:100940001124FF27591B99F0593F50F4503E68F18C
:100950001A16F040A22F232F342F4427585FF3CFCD
:10096000469537952795A795F0405395C9F77EF49E
:100970001F16BA0B620B730B840BBAF09150A1F0E7
:10098000FF0FBB1F661F771F881FC2F70EC0BA0F6D
:10099000621F731F841F48F4879577956795B795F5
:1009A000F7959E3F08F0B0CF9395880F08F09927F0
:1009B000EE0F9795879508950E94BF0508F481E092
:1009C00008950E94F5040C94FA050E94F30558F06E
:1009D0000E94EC0540F029F45F3F29F00C94E305F8
:1009E00051110C942E060C94E9050E940B0668F335
:1009F0009923B1F3552391F3951B550BBB27AA27D8
:100A000062177307840738F09F5F5F4F220F331F11
:100A1000441FAA1FA9F335D00E2E3AF0E0E832D0D9
:100A200091505040E695001CCAF72BD0FE2F29D0DC
:100A3000660F771F881FBB1F261737074807AB07AE
:100A4000B0E809F0BB0B802DBF01FF2793585F4F23
:100A50003AF09E3F510578F00C94E3050C942E0675
:100A60005F3FE4F3983ED4F3869577956795B79505
:100A7000F7959F5FC9F7880F911D9695879597F910
:100A80000895E1E0660F771F881FBB1F6217730789
:100A90008407BA0720F0621B730B840BBA0BEE1F9E
:100AA00088F7E09508950E94130688F09F5798F004
:100AB000B92F9927B751B0F0E1F0660F771F881F63
:100AC000991F1AF0BA95C9F714C0B13091F00E947D
:100AD0002D06B1E008950C942D06672F782F8827F6
:100AE000B85F39F0B93FCCF3869577956795B395A4
:100AF000D9F73EF490958095709561957F4F8F4F13
:100B00009F4F0895E89409C097FB3EF49095809517
:100B1000709561957F4F8F4F9F4F9923A9F0F92FC3
:100B200096E9BB279395F695879577956795B79541
:100B3000F111F8CFFAF4BB0F11F460FF1BC06F5F27
:100B40007F4F8F4F9F4F16C0882311F096E911C039
:100B5000772321F09EE8872F762F05C0662371F05A
:100B600096E8862F70E060E02AF09A95660F771F6E
:100B7000881FDAF7880F9695879597F90895990F4A
:100B80000008550FAA0BE0E8FEEF16161706E80757
:100B9000F907C0F012161306E407F50798F0621B78
:100BA000730B840B950B39F40A2661F0232B242B4D
:100BB000252B21F408950A2609F4A140A6958FEF6C
:100BC000811D811D089597F99F6780E870E060E0BE
:100BD00008959FEF80EC089500240A9416161706D6
:100BE00018060906089500240A941216130614061E
:100BF00005060895092E0394000C11F4882352F081
:100C0000BB0F40F4BF2B11F460FF04C06F5F7F4F38
:100C10008F4F9F4F089557FD9058440F551F59F01F
:100C20005F3F71F04795880F97FB991F61F09F3FD9
:100C300079F087950895121613061406551FF2CF02
:100C40004695F1DF08C0161617061806991FF1CF52
:100C500086957105610508940895E894BB27662779
:100C60007727CB0197F908950E94BF0508F48FEF0D
:100C700008950E944C060C94FA050E94EC0538F089
:100C80000E94F30520F0952311F00C94E3050C94D9
:100C9000E90511240C942E060E940B0670F3959F13
:100CA000C1F3950F50E0551F629FF001729FBB2763
:100CB000F00DB11D639FAA27F00DB11DAA1F649FFF
:100CC0006627B00DA11D661F829F2227B00DA11DB2
:100CD000621F739FB00DA11D621F839FA00D611D38
:100CE000221F749F3327A00D611D231F849F600D59
:100CF000211D822F762F6A2F11249F5750409AF082
:100D0000F1F088234AF0EE0FFF1FBB1F661F771F0D
:100D1000881F91505040A9F79E3F510580F00C94D8
:100D2000E3050C942E065F3FE4F3983ED4F38695DA
:100D300077956795B795F795E7959F5FC1F7FE2B78
:100D4000880F911D9695879597F908950E94BF0584
:100D5000880B990B089581E090E0F8940C94B0060C
:040D6000F894FFCF35
:100D64000000000001017D00CA00A800BC00480189
:100D74006E616E00696E66006F7666002E00090073
:040D84000D0A000054
:107E0000112484B714BE81FFF0D085E080938100F7
:107E100082E08093C00088E18093C10086E0809377
:107E2000C20080E18093C4008EE0C9D0259A86E02C
:107E300020E33CEF91E0309385002093840096BBD3
:107E4000B09BFECF1D9AA8958150A9F7CC24DD24C4
:107E500088248394B5E0AB2EA1E19A2EF3E0BF2EE7
:107E6000A2D0813461F49FD0082FAFD0023811F036
:107E7000013811F484E001C083E08DD089C08234E0
:107E800011F484E103C0853419F485E0A6D080C0E4
:107E9000853579F488D0E82EFF2485D0082F10E0AE
:107EA000102F00270E291F29000F111F8ED06801E7
:107EB0006FC0863521F484E090D080E0DECF843638
:107EC00009F040C070D06FD0082F6DD080E0C81688
:107ED00080E7D80618F4F601B7BEE895C0E0D1E017
:107EE00062D089930C17E1F7F0E0CF16F0E7DF06D8
:107EF00018F0F601B7BEE89568D007B600FCFDCFD4
:107F0000A601A0E0B1E02C9130E011968C91119780
:107F100090E0982F8827822B932B1296FA010C0160
:107F200087BEE89511244E5F5F4FF1E0A038BF0790
:107F300051F7F601A7BEE89507B600FCFDCF97BE46
:107F4000E89526C08437B1F42ED02DD0F82E2BD052
:107F50003CD0F601EF2C8F010F5F1F4F84911BD097
:107F6000EA94F801C1F70894C11CD11CFA94CF0C13
:107F7000D11C0EC0853739F428D08EE10CD085E9AC
:107F80000AD08FE07ACF813511F488E018D01DD067
:107F900080E101D065CF982F8091C00085FFFCCF94
:107FA0009093C60008958091C00087FFFCCF809118
:107FB000C00084FD01C0A8958091C6000895E0E648
:107FC000F0E098E1908380830895EDDF803219F02E
:107FD00088E0F5DFFFCF84E1DECF1F93182FE3DFCA
:107FE0001150E9F7F2DF1F91089580E0E8DFEE27F6
:047FF000FF270994CA
:027FFE00040479
:0400000300007E007B
:00000001FF
